{
  "_format": "hh-sol-artifact-1",
  "contractName": "Campaign",
  "sourceName": "contracts/Campaign.sol",
  "abi": [
    {
      "anonymous": false,
      "inputs": [
        {
          "indexed": false,
          "internalType": "uint256",
          "name": "campaignId",
          "type": "uint256"
        },
        {
          "indexed": false,
          "internalType": "address",
          "name": "fundraiser",
          "type": "address"
        }
      ],
      "name": "CampaignCreated",
      "type": "event"
    },
    {
      "anonymous": false,
      "inputs": [
        {
          "indexed": false,
          "internalType": "uint256",
          "name": "campaignId",
          "type": "uint256"
        },
        {
          "indexed": false,
          "internalType": "address",
          "name": "donor",
          "type": "address"
        },
        {
          "indexed": false,
          "internalType": "uint256",
          "name": "amount",
          "type": "uint256"
        }
      ],
      "name": "DonationReceived",
      "type": "event"
    },
    {
      "anonymous": false,
      "inputs": [
        {
          "indexed": false,
          "internalType": "uint256",
          "name": "campaignId",
          "type": "uint256"
        },
        {
          "indexed": false,
          "internalType": "address",
          "name": "fundraiser",
          "type": "address"
        },
        {
          "indexed": false,
          "internalType": "uint256",
          "name": "amount",
          "type": "uint256"
        }
      ],
      "name": "FundsWithdrawn",
      "type": "event"
    },
    {
      "inputs": [
        {
          "internalType": "uint256",
          "name": "",
          "type": "uint256"
        }
      ],
      "name": "availableDurations",
      "outputs": [
        {
          "internalType": "uint256",
          "name": "",
          "type": "uint256"
        }
      ],
      "stateMutability": "view",
      "type": "function"
    },
    {
      "inputs": [],
      "name": "campaignCount",
      "outputs": [
        {
          "internalType": "uint256",
          "name": "",
          "type": "uint256"
        }
      ],
      "stateMutability": "view",
      "type": "function"
    },
    {
      "inputs": [
        {
          "internalType": "uint256",
          "name": "",
          "type": "uint256"
        }
      ],
      "name": "campaigns",
      "outputs": [
        {
          "internalType": "string",
          "name": "title",
          "type": "string"
        },
        {
          "internalType": "address payable",
          "name": "fundraiser",
          "type": "address"
        },
        {
          "internalType": "uint256",
          "name": "goal",
          "type": "uint256"
        },
        {
          "internalType": "uint256",
          "name": "raisedAmount",
          "type": "uint256"
        },
        {
          "internalType": "uint256",
          "name": "deadline",
          "type": "uint256"
        },
        {
          "internalType": "string",
          "name": "story",
          "type": "string"
        },
        {
          "internalType": "string",
          "name": "imageUrl",
          "type": "string"
        },
        {
          "internalType": "bool",
          "name": "isActive",
          "type": "bool"
        },
        {
          "internalType": "bool",
          "name": "isWithdrawn",
          "type": "bool"
        }
      ],
      "stateMutability": "view",
      "type": "function"
    },
    {
      "inputs": [
        {
          "internalType": "string",
          "name": "_title",
          "type": "string"
        },
        {
          "internalType": "uint256",
          "name": "_goal",
          "type": "uint256"
        },
        {
          "internalType": "uint256",
          "name": "_duration",
          "type": "uint256"
        },
        {
          "internalType": "string",
          "name": "_story",
          "type": "string"
        },
        {
          "internalType": "string",
          "name": "_imageUrl",
          "type": "string"
        }
      ],
      "name": "createCampaign",
      "outputs": [],
      "stateMutability": "nonpayable",
      "type": "function"
    },
    {
      "inputs": [
        {
          "internalType": "uint256",
          "name": "_campaignId",
          "type": "uint256"
        }
      ],
      "name": "donate",
      "outputs": [],
      "stateMutability": "payable",
      "type": "function"
    },
    {
      "inputs": [
        {
          "internalType": "uint256",
          "name": "_campaignId",
          "type": "uint256"
        }
      ],
      "name": "getCampaignStatus",
      "outputs": [
        {
          "internalType": "bool",
          "name": "isActive",
          "type": "bool"
        },
        {
          "internalType": "bool",
          "name": "hasReachedGoal",
          "type": "bool"
        },
        {
          "internalType": "bool",
          "name": "hasEnded",
          "type": "bool"
        },
        {
          "internalType": "bool",
          "name": "isWithdrawn",
          "type": "bool"
        },
        {
          "internalType": "uint256",
          "name": "timeLeft",
          "type": "uint256"
        },
        {
          "internalType": "uint256",
          "name": "donorCount",
          "type": "uint256"
        }
      ],
      "stateMutability": "view",
      "type": "function"
    },
    {
      "inputs": [
        {
          "internalType": "uint256",
          "name": "_campaignId",
          "type": "uint256"
        },
        {
          "internalType": "address",
          "name": "donor",
          "type": "address"
        }
      ],
      "name": "getDonationAmount",
      "outputs": [
        {
          "internalType": "uint256",
          "name": "",
          "type": "uint256"
        }
      ],
      "stateMutability": "view",
      "type": "function"
    },
    {
      "inputs": [
        {
          "internalType": "uint256",
          "name": "_campaignId",
          "type": "uint256"
        }
      ],
      "name": "getDonors",
      "outputs": [
        {
          "internalType": "address[]",
          "name": "",
          "type": "address[]"
        },
        {
          "internalType": "uint256[]",
          "name": "",
          "type": "uint256[]"
        }
      ],
      "stateMutability": "view",
      "type": "function"
    },
    {
      "inputs": [],
      "name": "getDurations",
      "outputs": [
        {
          "internalType": "uint256[]",
          "name": "",
          "type": "uint256[]"
        }
      ],
      "stateMutability": "view",
      "type": "function"
    },
    {
      "inputs": [
        {
          "internalType": "uint256",
          "name": "_campaignId",
          "type": "uint256"
        }
      ],
      "name": "withdrawFunds",
      "outputs": [],
      "stateMutability": "nonpayable",
      "type": "function"
    }
  ],
  "bytecode": "0x60806040526040518060e00160405280607862ffffff16815260200161012c62ffffff16815260200161038462ffffff168152602001610e1062ffffff1681526020016201518062ffffff16815260200162093a8062ffffff16815260200162278d0062ffffff1681525060029060076200007c92919062000091565b503480156200008a57600080fd5b5062000109565b828054828255906000526020600020908101928215620000d7579160200282015b82811115620000d6578251829062ffffff16905591602001919060010190620000b2565b5b509050620000e69190620000ea565b5090565b5b8082111562000105576000816000905550600101620000eb565b5090565b611e6580620001196000396000f3fe6080604052600436106100915760003560e01c80636c19e004116100595780636c19e004146101a85780637274e30d146101ea578063c4d5b37d14610215578063e43826d814610240578063f14faf6f1461027d57610091565b8063141961bc14610096578063155dd5ee146100db57806329516511146101045780634b2aafcc146101425780635a2016861461016b575b600080fd5b3480156100a257600080fd5b506100bd60048036038101906100b89190611260565b610299565b6040516100d299989796959493929190611856565b60405180910390f35b3480156100e757600080fd5b5061010260048036038101906100fd9190611260565b6104b9565b005b34801561011057600080fd5b5061012b60048036038101906101269190611260565b61073e565b60405161013992919061179c565b60405180910390f35b34801561014e57600080fd5b50610169600480360381019061016491906111a1565b61097c565b005b34801561017757600080fd5b50610192600480360381019061018d9190611260565b610c1f565b60405161019f9190611a58565b60405180910390f35b3480156101b457600080fd5b506101cf60048036038101906101ca9190611260565b610c43565b6040516101e1969594939291906117f5565b60405180910390f35b3480156101f657600080fd5b506101ff610cdc565b60405161020c9190611a58565b60405180910390f35b34801561022157600080fd5b5061022a610ce2565b60405161023791906117d3565b60405180910390f35b34801561024c57600080fd5b5061026760048036038101906102629190611289565b610d3a565b6040516102749190611a58565b60405180910390f35b61029760048036038101906102929190611260565b610d97565b005b60006020528060005260406000206000915090508060000180546102bc90611ce8565b80601f01602080910402602001604051908101604052809291908181526020018280546102e890611ce8565b80156103355780601f1061030a57610100808354040283529160200191610335565b820191906000526020600020905b81548152906001019060200180831161031857829003601f168201915b5050505050908060010160009054906101000a900473ffffffffffffffffffffffffffffffffffffffff169080600201549080600301549080600401549080600501805461038290611ce8565b80601f01602080910402602001604051908101604052809291908181526020018280546103ae90611ce8565b80156103fb5780601f106103d0576101008083540402835291602001916103fb565b820191906000526020600020905b8154815290600101906020018083116103de57829003601f168201915b50505050509080600601805461041090611ce8565b80601f016020809104026020016040519081016040528092919081815260200182805461043c90611ce8565b80156104895780601f1061045e57610100808354040283529160200191610489565b820191906000526020600020905b81548152906001019060200180831161046c57829003601f168201915b5050505050908060070160009054906101000a900460ff16908060070160019054906101000a900460ff16905089565b600080600083815260200190815260200160002090508060010160009054906101000a900473ffffffffffffffffffffffffffffffffffffffff1673ffffffffffffffffffffffffffffffffffffffff163373ffffffffffffffffffffffffffffffffffffffff1614610561576040517f08c379a000000000000000000000000000000000000000000000000000000000815260040161055890611918565b60405180910390fd5b8060070160019054906101000a900460ff16156105b3576040517f08c379a00000000000000000000000000000000000000000000000000000000081526004016105aa906119b8565b60405180910390fd5b8060040154421015806105ce57508060020154816003015410155b61060d576040517f08c379a000000000000000000000000000000000000000000000000000000000815260040161060490611a38565b60405180910390fd5b60008160030154905060008111610659576040517f08c379a000000000000000000000000000000000000000000000000000000000815260040161065090611958565b60405180910390fd5b60018260070160016101000a81548160ff02191690831515021790555060008260070160006101000a81548160ff0219169083151502179055507ff440aec6b52895984d061d622e6edeba6210f7c3e059be920663140c084560d78333836040516106c693929190611a9c565b60405180910390a18160010160009054906101000a900473ffffffffffffffffffffffffffffffffffffffff1673ffffffffffffffffffffffffffffffffffffffff166108fc829081150290604051600060405180830381858888f19350505050158015610738573d6000803e3d6000fd5b50505050565b606080600080600085815260200190815260200160002090506000816008018054905067ffffffffffffffff8111156107a0577f4e487b7100000000000000000000000000000000000000000000000000000000600052604160045260246000fd5b6040519080825280602002602001820160405280156107ce5781602001602082028036833780820191505090505b50905060005b82600801805490508110156108e357826009016000846008018381548110610825577f4e487b7100000000000000000000000000000000000000000000000000000000600052603260045260246000fd5b9060005260206000200160009054906101000a900473ffffffffffffffffffffffffffffffffffffffff1673ffffffffffffffffffffffffffffffffffffffff1673ffffffffffffffffffffffffffffffffffffffff168152602001908152602001600020548282815181106108c4577f4e487b7100000000000000000000000000000000000000000000000000000000600052603260045260246000fd5b60200260200101818152505080806108db90611d1a565b9150506107d4565b5081600801818180548060200260200160405190810160405280929190818152602001828054801561096a57602002820191906000526020600020905b8160009054906101000a900473ffffffffffffffffffffffffffffffffffffffff1673ffffffffffffffffffffffffffffffffffffffff1681526020019060010190808311610920575b50505050509150935093505050915091565b600084116109bf576040517f08c379a00000000000000000000000000000000000000000000000000000000081526004016109b690611a18565b60405180910390fd5b60008311610a02576040517f08c379a00000000000000000000000000000000000000000000000000000000081526004016109f990611978565b60405180910390fd5b6000805b600280549050811015610a7b5760028181548110610a4d577f4e487b7100000000000000000000000000000000000000000000000000000000600052603260045260246000fd5b9060005260206000200154851415610a685760019150610a7b565b8080610a7390611d1a565b915050610a06565b5080610abc576040517f08c379a0000000000000000000000000000000000000000000000000000000008152600401610ab390611998565b60405180910390fd5b60016000815480929190610acf90611d1a565b919050555060008060006001548152602001908152602001600020905086816000019080519060200190610b0492919061106c565b50338160010160006101000a81548173ffffffffffffffffffffffffffffffffffffffff021916908373ffffffffffffffffffffffffffffffffffffffff160217905550858160020181905550600081600301819055508442610b679190611bc2565b816004018190555083816005019080519060200190610b8792919061106c565b5082816006019080519060200190610ba092919061106c565b5060018160070160006101000a81548160ff02191690831515021790555060008160070160016101000a81548160ff0219169083151502179055507f633109eec20320eded000fc1e2634211aa7e92ba3f5b15faf6dcdafca05094e460015433604051610c0e929190611a73565b60405180910390a150505050505050565b60028181548110610c2f57600080fd5b906000526020600020016000915090505481565b600080600080600080600080600089815260200190815260200160002090508060070160009054906101000a900460ff1696508060020154816003015410159550806004015442101594508060070160019054906101000a900460ff1693508060040154421015610cc357428160040154610cbe9190611c18565b610cc6565b60005b9250806008018054905091505091939550919395565b60015481565b60606002805480602002602001604051908101604052809291908181526020018280548015610d3057602002820191906000526020600020905b815481526020019060010190808311610d1c575b5050505050905090565b600080600084815260200190815260200160002060090160008373ffffffffffffffffffffffffffffffffffffffff1673ffffffffffffffffffffffffffffffffffffffff16815260200190815260200160002054905092915050565b600080600083815260200190815260200160002090508060070160009054906101000a900460ff16610dfe576040517f08c379a0000000000000000000000000000000000000000000000000000000008152600401610df5906119d8565b60405180910390fd5b80600401544210610e44576040517f08c379a0000000000000000000000000000000000000000000000000000000008152600401610e3b906118f8565b60405180910390fd5b60003411610e87576040517f08c379a0000000000000000000000000000000000000000000000000000000008152600401610e7e906119f8565b60405180910390fd5b8060020154348260030154610e9c9190611bc2565b1115610edd576040517f08c379a0000000000000000000000000000000000000000000000000000000008152600401610ed490611938565b60405180910390fd5b60008160090160003373ffffffffffffffffffffffffffffffffffffffff1673ffffffffffffffffffffffffffffffffffffffff168152602001908152602001600020541415610f8d5780600801339080600181540180825580915050600190039060005260206000200160009091909190916101000a81548173ffffffffffffffffffffffffffffffffffffffff021916908373ffffffffffffffffffffffffffffffffffffffff1602179055505b348160090160003373ffffffffffffffffffffffffffffffffffffffff1673ffffffffffffffffffffffffffffffffffffffff1681526020019081526020016000206000828254610fde9190611bc2565b9250508190555034816003016000828254610ff99190611bc2565b925050819055507f0b5b4c52969ff7329ecf7ee536409fda87812b15a8622bc6e8cdeab3aee14a2682333460405161103393929190611a9c565b60405180910390a180600201548160030154106110685760008160070160006101000a81548160ff0219169083151502179055505b5050565b82805461107890611ce8565b90600052602060002090601f01602090048101928261109a57600085556110e1565b82601f106110b357805160ff19168380011785556110e1565b828001600101855582156110e1579182015b828111156110e05782518255916020019190600101906110c5565b5b5090506110ee91906110f2565b5090565b5b8082111561110b5760008160009055506001016110f3565b5090565b600061112261111d84611b04565b611ad3565b90508281526020810184848401111561113a57600080fd5b611145848285611ca6565b509392505050565b60008135905061115c81611e01565b92915050565b600082601f83011261117357600080fd5b813561118384826020860161110f565b91505092915050565b60008135905061119b81611e18565b92915050565b600080600080600060a086880312156111b957600080fd5b600086013567ffffffffffffffff8111156111d357600080fd5b6111df88828901611162565b95505060206111f08882890161118c565b94505060406112018882890161118c565b935050606086013567ffffffffffffffff81111561121e57600080fd5b61122a88828901611162565b925050608086013567ffffffffffffffff81111561124757600080fd5b61125388828901611162565b9150509295509295909350565b60006020828403121561127257600080fd5b60006112808482850161118c565b91505092915050565b6000806040838503121561129c57600080fd5b60006112aa8582860161118c565b92505060206112bb8582860161114d565b9150509250929050565b60006112d18383611304565b60208301905092915050565b60006112e9838361177e565b60208301905092915050565b6112fe81611c5e565b82525050565b61130d81611c4c565b82525050565b61131c81611c4c565b82525050565b600061132d82611b54565b6113378185611b8f565b935061134283611b34565b8060005b8381101561137357815161135a88826112c5565b975061136583611b75565b925050600181019050611346565b5085935050505092915050565b600061138b82611b5f565b6113958185611ba0565b93506113a083611b44565b8060005b838110156113d15781516113b888826112dd565b97506113c383611b82565b9250506001810190506113a4565b5085935050505092915050565b6113e781611c70565b82525050565b60006113f882611b6a565b6114028185611bb1565b9350611412818560208601611cb5565b61141b81611df0565b840191505092915050565b6000611433601283611bb1565b91507f43616d706169676e2068617320656e64656400000000000000000000000000006000830152602082019050919050565b6000611473602283611bb1565b91507f4f6e6c792063616d706169676e2063726561746f722063616e2077697468647260008301527f61770000000000000000000000000000000000000000000000000000000000006020830152604082019050919050565b60006114d9602383611bb1565b91507f446f6e6174696f6e20776f756c64206578636565642063616d706169676e206760008301527f6f616c00000000000000000000000000000000000000000000000000000000006020830152604082019050919050565b600061153f601483611bb1565b91507f4e6f2066756e647320746f2077697468647261770000000000000000000000006000830152602082019050919050565b600061157f601f83611bb1565b91507f4475726174696f6e206d7573742062652067726561746572207468616e2030006000830152602082019050919050565b60006115bf601983611bb1565b91507f496e76616c6964206475726174696f6e2073656c6563746564000000000000006000830152602082019050919050565b60006115ff602183611bb1565b91507f46756e6473206861766520616c7265616479206265656e20776974686472617760008301527f6e000000000000000000000000000000000000000000000000000000000000006020830152604082019050919050565b6000611665601683611bb1565b91507f43616d706169676e206973206e6f7420616374697665000000000000000000006000830152602082019050919050565b60006116a5601983611bb1565b91507f4d7573742073656e6420657468657220746f20646f6e617465000000000000006000830152602082019050919050565b60006116e5601b83611bb1565b91507f476f616c206d7573742062652067726561746572207468616e203000000000006000830152602082019050919050565b6000611725602683611bb1565b91507f43616d706169676e206d75737420626520656e646564206f7220676f616c207260008301527f65616368656400000000000000000000000000000000000000000000000000006020830152604082019050919050565b61178781611c9c565b82525050565b61179681611c9c565b82525050565b600060408201905081810360008301526117b68185611322565b905081810360208301526117ca8184611380565b90509392505050565b600060208201905081810360008301526117ed8184611380565b905092915050565b600060c08201905061180a60008301896113de565b61181760208301886113de565b61182460408301876113de565b61183160608301866113de565b61183e608083018561178d565b61184b60a083018461178d565b979650505050505050565b6000610120820190508181036000830152611871818c6113ed565b9050611880602083018b6112f5565b61188d604083018a61178d565b61189a606083018961178d565b6118a7608083018861178d565b81810360a08301526118b981876113ed565b905081810360c08301526118cd81866113ed565b90506118dc60e08301856113de565b6118ea6101008301846113de565b9a9950505050505050505050565b6000602082019050818103600083015261191181611426565b9050919050565b6000602082019050818103600083015261193181611466565b9050919050565b60006020820190508181036000830152611951816114cc565b9050919050565b6000602082019050818103600083015261197181611532565b9050919050565b6000602082019050818103600083015261199181611572565b9050919050565b600060208201905081810360008301526119b1816115b2565b9050919050565b600060208201905081810360008301526119d1816115f2565b9050919050565b600060208201905081810360008301526119f181611658565b9050919050565b60006020820190508181036000830152611a1181611698565b9050919050565b60006020820190508181036000830152611a31816116d8565b9050919050565b60006020820190508181036000830152611a5181611718565b9050919050565b6000602082019050611a6d600083018461178d565b92915050565b6000604082019050611a88600083018561178d565b611a956020830184611313565b9392505050565b6000606082019050611ab1600083018661178d565b611abe6020830185611313565b611acb604083018461178d565b949350505050565b6000604051905081810181811067ffffffffffffffff82111715611afa57611af9611dc1565b5b8060405250919050565b600067ffffffffffffffff821115611b1f57611b1e611dc1565b5b601f19601f8301169050602081019050919050565b6000819050602082019050919050565b6000819050602082019050919050565b600081519050919050565b600081519050919050565b600081519050919050565b6000602082019050919050565b6000602082019050919050565b600082825260208201905092915050565b600082825260208201905092915050565b600082825260208201905092915050565b6000611bcd82611c9c565b9150611bd883611c9c565b9250827fffffffffffffffffffffffffffffffffffffffffffffffffffffffffffffffff03821115611c0d57611c0c611d63565b5b828201905092915050565b6000611c2382611c9c565b9150611c2e83611c9c565b925082821015611c4157611c40611d63565b5b828203905092915050565b6000611c5782611c7c565b9050919050565b6000611c6982611c7c565b9050919050565b60008115159050919050565b600073ffffffffffffffffffffffffffffffffffffffff82169050919050565b6000819050919050565b82818337600083830152505050565b60005b83811015611cd3578082015181840152602081019050611cb8565b83811115611ce2576000848401525b50505050565b60006002820490506001821680611d0057607f821691505b60208210811415611d1457611d13611d92565b5b50919050565b6000611d2582611c9c565b91507fffffffffffffffffffffffffffffffffffffffffffffffffffffffffffffffff821415611d5857611d57611d63565b5b600182019050919050565b7f4e487b7100000000000000000000000000000000000000000000000000000000600052601160045260246000fd5b7f4e487b7100000000000000000000000000000000000000000000000000000000600052602260045260246000fd5b7f4e487b7100000000000000000000000000000000000000000000000000000000600052604160045260246000fd5b6000601f19601f8301169050919050565b611e0a81611c4c565b8114611e1557600080fd5b50565b611e2181611c9c565b8114611e2c57600080fd5b5056fea264697066735822122034480f0df7b5b5e07df00102c393650cb7217cc224358bbb5e8f010232fbe3e964736f6c63430008000033",
  "linkReferences": {},
  "deployedLinkReferences": {}
}